:1000000013C037C036C035C034C033C032C031C071
:10001000F1C5ECCB2EC08BC9C1C92BC02AC029C0E9
:1000200028C027C026C02B0B11241FBECFE5D4E06B
:10003000DEBFCDBF11E0A0E6B0E0EEEEFAE102C017
:1000400005900D92A638B107D9F712E0A6E8B1E005
:1000500001C01D92A836B107E1F710E0C8E2D0E078
:1000600003C02297FE0191DCC632D107D1F71AD81E
:100070003CCDC6CFA0E0B0E0EFE3F0E04DCCDC013A
:100080002B01FA019C91923008F439C1EB0188816F
:10009000823008F433C1943069F4843009F02FC100
:1000A00011969C9111978981981709F428C1A5E6AA
:1000B000B0E025C1843009F421C18230A9F4923026
:1000C00009F01DC19A01AD0188E0EA010990AE0175
:1000D000E90109929E018150C1F7E20189811196DF
:1000E0009C918923818308C1923009F407C112963B
:1000F0002D903C901397EB018A819B811496AD90D3
:10010000BD90CD90DC901797EC80FD800E811F8113
:100110009101281B390BB90137FF04C066277727E7
:10012000621B730B603271050CF061C0121613066E
:100130006CF537014801062E04C096948794779495
:1001400067940A94D2F721E030E040E050E004C028
:10015000220F331F441F551F6A95D2F7215030409C
:10016000404050402E213F2140235123211531058D
:100170004105510521F021E030E040E050E07901F7
:100180008A01E628F728082919293CC0232BD1F138
:10019000260E371E35014601062E04C0969487941C
:1001A000779467940A94D2F721E030E040E050E081
:1001B00004C0220F331F441F551F6A95D2F72150E8
:1001C0003040404050402A213B214C215D212115E7
:1001D00031054105510521F021E030E040E050E0DB
:1001E00059016A01A628B728C828D9280BC082154A
:1001F00093052CF01C01AA24BB24650103C0EE2446
:10020000FF24870111969C91D20111968C91981729
:1002100009F445C0992339F0A80197012A193B092F
:100220004C095D0906C0A60195012E193F09400B36
:10023000510B57FD08C011823382228224833583FB
:10024000468357831DC081E08183338222828827C1
:100250009927DC01821B930BA40BB50B8483958338
:10026000A683B7830DC0220F331F441F551F24835D
:100270003583468357838281938101979383828359
:100280002481358146815781DA01C9010197A1098D
:10029000B1098F5F9F4FAF4FBF4328F30BC09183CE
:1002A00033822282EA0CFB1C0C1D1D1DE482F582A8
:1002B0000683178383E080832481358146815781BB
:1002C00057FF1AC0C901AA2797FDA095BA2F8170C0
:1002D0009070A070B0705695479537952795822BF2
:1002E000932BA42BB52B84839583A683B78382811C
:1002F0009381019693838283DF0101C0D201CD01F6
:10030000CDB7DEB7E2E124CBA0E2B0E0E9E8F1E06E
:100310000FCB69837A838B839C832D833E834F83AA
:100320005887E9E0EE2EF12CEC0EFD1ECE01019671
:10033000B70156D38E010F5E1F4FCE010596B8014F
:100340004FD38A8991E089278A8BC701B801AE0112
:10035000475E5F4F8FDE6FD2A096E6E005CBA0E24E
:10036000B0E0E4EBF1E0E4CA69837A838B839C8399
:100370002D833E834F835887F9E0EF2EF12CEC0E4E
:10038000FD1ECE010196B7012BD38E010F5E1F4FCC
:10039000CE010596B80124D3C701B801AE01475E6E
:1003A0005F4F68DE48D2A096E6E0DECAA0E2B0E089
:1003B000EBEDF1E0B1CA69837A838B839C832D8353
:1003C0003E834F835887CE010196BE01675F7F4F02
:1003D00007D3CE010596BE016F5E7F4F01D399858D
:1003E000923088F089898230C8F0943019F48230D4
:1003F00051F404C0843029F4923081F485E690E011
:10040000C6C0923049F420E09A858A89981321E089
:100410002A87CE010996BBC0823049F420E09A8534
:100420008A89981321E02A8BCE014196B0C02D8491
:100430003E844F8458886D887E888F88988CEE24FF
:10044000FF248701AA24BB24650140E050E060E05E
:1004500070E0E0E0F0E0C10181709070892BE9F07C
:10046000E60CF71C081D191D9A01AB012A0D3B1D56
:100470004C1D5D1D80E090E0A0E0B0E0E614F704C4
:100480000805190520F481E090E0A0E0B0E0BA0191
:10049000A901480F591F6A1F7B1FAA0CBB1CCC1C4B
:1004A000DD1C97FE08C081E090E0A0E0B0E0A82A43
:1004B000B92ACA2ADB2A3196E032F10549F0660CE6
:1004C000771C881C991C5694479437942794C3CF63
:1004D000FA85EA892B893C898B859C85280F391FF1
:1004E0002E5F3F4F17C0CA0181709070892B61F059
:1004F00016950795F794E79480E090E0A0E0B0E8C7
:10050000E82AF92A0A2B1B2B76956795579547956C
:100510002F5F3F4F77FDE7CF0CC0440F551F661F7D
:10052000771F17FD4160EE0CFF1C001F111F2150AB
:100530003040403090E0590790E0690790E4790737
:1005400060F32B8F3C8FDB01CA018F779070A07016
:10055000B07080349105A105B10561F447FD0AC072
:10056000E114F1040105110529F0405C5F4F6F4F64
:100570007F4F40781A8EFE1711F081E08A8F4D8FE1
:100580005E8F6F8F78A383E0898FCE01499653D118
:10059000A096E2E1DDC9A8E1B0E0E0EDF2E0C4C977
:1005A00069837A838B839C832D833E834F83588713
:1005B000B9E0EB2EF12CEC0EFD1ECE010196B70139
:1005C0000FD28E010F5E1F4FCE010596B80108D2E3
:1005D0002985223008F47EC03989323010F4B80100
:1005E0007CC08A859A8989278A87243011F0223035
:1005F00031F4231709F06EC065E670E06EC0343048
:1006000039F41D861E861F86188A1C861B8604C028
:10061000323021F484E08987B7015FC02B853C85A7
:100620008B899C89281B390B3C872B87ED84FE84A2
:100630000F851889AD88BE88CF88D88CEA14FB0452
:100640000C051D0540F4EE0CFF1C001F111F21506E
:1006500030403C872B8720E030E040E050E080E0F5
:1006600090E0A0E0B0E460E070E0EA14FB040C0568
:100670001D0540F0282B392B4A2B5B2BEA18FB0871
:100680000C091D09B695A79597958795EE0CFF1C4B
:10069000001F111F6F5F7F4F6F31710531F7DA0156
:1006A000C9018F779070A070B07080349105A1055A
:1006B000B10561F427FD0AC0E114F104010511053B
:1006C00029F0205C3F4F4F4F5F4F20782D873E87AA
:1006D0004F87588BBE01675F7F4FCB01ACD06896C8
:1006E000EAE03EC9A8E0B0E0E7E7F3E01EC99B01FD
:1006F000AC0183E08983DA01C9018827B7FD8395BE
:100700009927AA27BB27B82E211531054105510588
:1007100019F482E0898339C08823A9F0203080E071
:10072000380780E0480780E8580729F460E070E067
:1007300080E09FEC2EC0EE24FF248701E21AF30A2A
:10074000040B150B02C079018A018EE1C82ED12C51
:10075000DC82CB82ED82FE820F831887C801B7014D
:100760001BD001971816190684F4082E04C0EE0C4D
:10077000FF1C001F111F0A94D2F7ED82FE820F8327
:100780001887C81AD90ADC82CB82BA82CE010196B8
:1007900052D02896E9E0E5C8EF92FF920F931F939D
:1007A0007B018C0180E0E81680E0F80681E0080714
:1007B00080E0180788F48FEFE816F10401051105B1
:1007C00031F028F088E090E0A0E0B0E017C080E0D1
:1007D00090E0A0E0B0E012C080E0E81680E0F8060B
:1007E00080E0080781E0180728F088E190E0A0E0A9
:1007F000B0E004C080E190E0A0E0B0E020E230E0B2
:1008000040E050E0281B390B4A0B5B0B04C01695E7
:100810000795F794E7948A95D2F7F701E359FF4FCC
:100820008081281B310941095109C9011F910F918C
:10083000FF90EF900895DF92EF92FF920F931F9336
:10084000FC01E480F58006811781D18080818230AF
:1008500048F480E090E0A0E1B0E0E82AF92A0A2B11
:100860001B2BA5C0843009F49FC0823021F4EE24F4
:10087000FF24870105C0E114F1040105110519F4F5
:10088000E0E0F0E096C0628173819FEF6238790703
:100890000CF05BC022E83FEF261B370B2A313105F5
:1008A0002CF020E030E040E050E02AC0B801A70181
:1008B000022E04C076956795579547950A94D2F70E
:1008C00081E090E0A0E0B0E004C0880F991FAA1F6B
:1008D000BB1F2A95D2F70197A109B1098E219F214B
:1008E000A023B1230097A105B10521F081E090E09C
:1008F000A0E0B0E09A01AB01282B392B4A2B5B2BEF
:10090000DA01C9018F779070A070B07080349105C2
:10091000A105B10539F427FF09C0205C3F4F4F4FB7
:100920005F4F04C0215C3F4F4F4F5F4FE0E0F0E06E
:100930002030A0E03A07A0E04A07A0E45A0710F0F0
:10094000E1E0F0E079018A0127C06038710564F5C3
:10095000FB01E158FF4FD801C7018F779070A0705D
:10096000B07080349105A105B10539F4E7FE0DC0E2
:1009700080E490E0A0E0B0E004C08FE390E0A0E06D
:10098000B0E0E80EF91E0A1F1B1F17FF05C01695E1
:100990000795F794E794319687E016950795F794B5
:1009A000E7948A95D1F705C0EE24FF248701EFEF85
:1009B000F0E06E2F679566276795902F9F77D79405
:1009C000DD24D7948E2F8695492F462B582F5D29ED
:1009D000B701CA011F910F91FF90EF90DF9008952A
:1009E000FC01DB01408151812281622F6F7770E031
:1009F000221F2227221F9381892F880F822B282FC5
:100A000030E0991F9927991F11969C9311972115F2
:100A10003105A9F5411551056105710511F482E013
:100A200037C082E89FEF13969C938E9312979A019A
:100A3000AB0167E0220F331F441F551F6A95D1F7A2
:100A400083E08C930DC0220F331F441F551F129655
:100A50008D919C911397019713969C938E93129767
:100A6000203080E0380780E0480780E4580758F3DA
:100A700014962D933D934D935C93179708952F3FB4
:100A8000310579F4411551056105710519F484E0CA
:100A90008C93089564FF03C081E08C9312C01C9274
:100AA00010C02F57304013963C932E93129783E03B
:100AB0008C9387E0440F551F661F771F8A95D1F7E7
:100AC000706414964D935D936D937C93179708957E
:100AD00087B3866087BB81B3886181BB8A9808959C
:100AE00086B1876086B9379A3F983E9A3D983B9881
:100AF0003A98399838983E9A3F9A0895C19AC29880
:100B0000939A949A88E893E128EC30E0F9013197C0
:100B1000F1F70197D9F7949881E08093B00180E3D1
:100B200095E728EC30E0F9013197F1F70197D9F713
:100B30000895C198C29A1092B0019398949880E356
:100B400095E728EC30E0F9013197F1F70197D9F7F3
:100B500008953B983A9839983898369A3699FECF46
:100B600084B145B1342F20E090E0282B392B2C5252
:100B7000314020F481E08093900102C010929001F6
:100B80003B983A983998389A369A3699FECF84B17C
:100B900045B1342F20E090E0282B392B2C523140E6
:100BA00020F481E080938F01089510928F010895C1
:100BB00080916E01823059F0833099F08130C9F410
:100BC0009DDF109289011092880182E007C0809118
:100BD0008A01882371F010928A0183E080936E016C
:100BE0000895A7DF10928A0181E080936D01109231
:100BF0006E0108951F920F920FB60F9211242F933A
:100C00008F939F9380918B01803F31F481E080939B
:100C10008C0110928B0105C080918B018F5F8093B6
:100C20008B0180916E018230A1F4809188019091B6
:100C30008901815C924120F081E080938A0109C0A2
:100C40008091880190918901019690938901809308
:100C5000880180918D0190918E01019690938E0173
:100C600080938D019F918F912F910F900FBE0F90C8
:100C70001F9018950F931F93CF93DF9311E0C6E950
:100C8000D1E00AE032C089E392E06CD4982F8093DF
:100C90009401843221F41092930110939501809174
:100CA0009501882331F0E0919301F0E0EA56FE4F80
:100CB0009083809193018F5F809393018A3038F005
:100CC000DE01E02F1D92EA95E9F7109293018091E1
:100CD00094018B3351F480919501882331F0109267
:100CE0009501109293011093AA0189E392E009D42F
:100CF0001816190644F28091AA01882361F1109216
:100D0000AA0186E991E064E270E0DCD6EC0186E9B4
:100D100091E06BE370E0D6D62097E9F08C1B21E0E0
:100D200030E0482F50E00AC0F901E156FE4FDE01E5
:100D3000A20FB31F8C9180832F5F3F4F4217530741
:100D40009CF78AE0E6E9F1E0DF011D928A95E9F778
:100D500081E08093AB01DF91CF911F910F910895B6
:100D60001F938091AB018823C9F11092AB0180E3FE
:100D70008093AD018091A0018093AE011092AF01EC
:100D80008DEA91E082D68093AC01813001F58091AB
:100D9000A1018093AD018091A2018093AE011092D8
:100DA000AF018DEA91E071D6182F8091A301809355
:100DB000AD018091A4018093AE018DEA91E065D6EA
:100DC000819FC001112490938E0180938D018AE050
:100DD000E0EAF1E0DF011D928A95E9F71F9108959D
:100DE00089E392E060E670E0F0C480918C01882392
:100DF00019F010928C01F4DF80918D0190918E0199
:100E00008056944538F481E090E090938701809378
:100E1000860104C0109287011092860182990DC04C
:100E200080916E01823021F483E080936E010895F9
:100E300010926D0181E080936E0108956F927F9210
:100E40008F929F92AF92BF92CF92DF92EF92FF92DA
:100E50000F931F93CF93DF933B983A983998389824
:100E600080E892E02FD1EC0140E050E081E090E09A
:100E7000369A3699FECF81309105A9F484B125B117
:100E8000FA01F595E795F595E795EE0FFF1FEC0F45
:100E9000FD1F322F20E090E0822B932B91838083E3
:100EA00084E090E001C001974F5F5F4F65E0403004
:100EB0005607F1F680E095E005D1792EC82ED92E9F
:100EC000682E8E015601760190E8892E92E0992EC7
:100ED0008C0E9D1EF801619171918F01882777FD1D
:100EE0008095982FFFDB20E030E040EA50E45EDAA6
:100EF00020E030E040E85AE359DAF701619371935A
:100F0000819391937F010815190521F7CE0177D1BF
:100F1000E60160E070E080E090E0860100501B4F49
:100F200029913991499159911ADAC017D107C1F71E
:100F300020E030E040EA53E42EDB7B018C01F50138
:100F40006081718182819381A8019701DDD9F501CA
:100F500061937193819391935F01EC17FD0779F78A
:100F600080E095E0AFD0B92EE82EF92EA82EC0E093
:100F7000D0E0F601EC0FFD1F2081318142815381C9
:100F800087010C0F1D1FCA01B90110DAF801608337
:100F90007183828393832496F5E0C030DF0749F79D
:100FA000C3012DD1E7010F2EF0E0EF2EF0E0FF2E70
:100FB000F0E00F2FF0E01F2FF02DC12C85E0D82E90
:100FC000CC0EDD1EC801B701299139914991599183
:100FD000C6D97B018C01CC15DD05A1F7C5010FD168
:100FE000C801B70120E030E040EA53E4D4DAD5D4B8
:100FF00020E030E84CEF54E4D9D920E030E04BE970
:1010000053E4C9DADF91CF911F910F91FF90EF90D8
:10101000DF90CF90BF90AF909F908F907F906F9018
:1010200008950CDF96DD80918F01882351F0809127
:101030009201882331F41092910181E08093920112
:101040005DDD80919001882351F480919101882386
:1010500031F481E080939101109292016ACD08955C
:101060008091860190918701009719F0019761F4B2
:101070000AC08091B001882339F05BDD10929201A3
:10108000109291010895CDCF089580916D0188232C
:1010900019F0813019F401C08BCDE2CF81E080934B
:1010A0006D010895F7D314DD1BDD89E392E040E87C
:1010B00055E260E070E0A8D13CDD97DEE6DFDADDE6
:1010C0004FDEFBCF0F931F93CF93DF93BC01823092
:1010D000910510F462E070E0E0916602F091670221
:1010E00040E050E0A0E0B0E024C08081918186170C
:1010F0009707D0F08617970771F482819381109734
:1011000029F013969C938E9312972CC090936702AC
:101110008093660227C04115510519F08417950781
:1011200018F4AC01EF018D01DF01828193819C01F4
:10113000F9013097D1F641155105F9F0CA01861B26
:10114000970B8430910580F48A819B8101151105EC
:1011500021F0F8019383828304C090936702809307
:101160006602FE01329645C0FE01E80FF91F619349
:1011700071930297998388833CC080916402909117
:101180006502892B41F480917101909172019093D5
:10119000650280936402409173015091740141157E
:1011A000510541F44DB75EB780916F019091700188
:1011B000481B590B209164023091650224173507B2
:1011C000B0F4CA01821B930B8617970780F0AB011E
:1011D0004E5F5F4F8417950750F0420F531F509397
:1011E000650240936402F9016193719302C0E0E0EB
:1011F000F0E0CF01DF91CF911F910F910895CF9330
:10120000DF939C01009709F48FC0EC0122971B82A9
:101210001A8260916602709167026115710581F40E
:1012200088819981820F931F209164023091650219
:101230002817390739F5D0936502C093640274C04A
:10124000DB0140E050E0AC17BD0708F1BB83AA8387
:10125000FE0121913191E20FF31FAE17BF0779F420
:101260008D919C911197280F391F2E5F3F4F398325
:10127000288312968D919C9113979B838A834115A5
:10128000510571F4D0936702C09366024DC0129667
:101290008D919C911397AD01009711F0DC01D3CF94
:1012A000DA011396DC93CE931297FA0121913191D2
:1012B000E20FF31FCE17DF0769F488819981280FA9
:1012C000391F2E5F3F4FFA01318320838A819B8132
:1012D00093838283E0E0F0E0DB0112968D919C9194
:1012E0001397009719F0BC01FD01F6CFAB014E5FDB
:1012F0005F4FDB018D919C91840F951F20916402BB
:10130000309165022817390779F4309729F4109243
:1013100067021092660202C013821282425050404D
:101320005093650240936402DF91CF9108951F921C
:101330000F920FB60F9211242F933F934F938F93D9
:101340009F93EF93FF935A991CC04CB12091F101E8
:101350003091F2012F5F3F4F2F7330708091F30176
:101360009091F4012817390769F0E091F101F091AB
:10137000F201EF54FE4F40833093F2012093F101CC
:1013800001C08CB1FF91EF919F918F914F913F914F
:101390002F910F900FBE0F901F9018951F920F92D4
:1013A0000FB60F9211242F933F938F939F93EF9338
:1013B000FF9320913502309136028091370290914F
:1013C00038022817390711F4559813C0E0913702F5
:1013D000F0913802EB50FE4F2081809137029091BE
:1013E000380201968F739070909338028093370281
:1013F0002CB9FF91EF919F918F913F912F910F9079
:101400000FBE0F901F901895AF92BF92DF92EF9290
:10141000FF920F931F93CF93DF93EC017A018B011F
:10142000DD24D39491E0A92EB12CEC89FD89DD2037
:1014300069F0C50108A002C0880F991F0A94E2F75D
:10144000808360E874E88EE190E005C0108260E47B
:1014500072E48FE090E0A80197013CD22150304027
:1014600040405040569547953795279580E120306C
:10147000380720F0DD2011F0DD24D7CFE889F98985
:101480003083EA89FB89208319A2EE89FF89408194
:1014900021E030E0C9010C8C02C0880F991F0A942A
:1014A000E2F7482B4083EE89FF894081C9010D8C0A
:1014B00002C0880F991F0A94E2F7482B4083EE89F7
:1014C000FF894081C9010E8C02C0880F991F0A94C0
:1014D000E2F7482B4083EE89FF8980810F8C02C0A0
:1014E000220F331F0A94E2F7209528232083DF91EF
:1014F000CF911F910F91FF90EF90DF90BF90AF9031
:101500000895DC011C96ED91FC911D97E05CFF4F66
:101510002191319180819181281B390B2F7330707B
:10152000C9010895DC011C96ED91FC911D97E05CCA
:10153000FF4F20813181E054F040DF01AE5BBF4FAF
:101540008D919C9111972817390719F42FEF3FEFD0
:1015500007C08D919C91E80FF91F8081282F30E002
:10156000C9010895DC011C96ED91FC911D97E05C8A
:10157000FF4F20813181E054F040DF01AE5BBF4F6F
:101580008D919C9111972817390719F42FEF3FEF90
:1015900010C08D919C911197E80FF91F20818D91BA
:1015A0009C91119701968F73907011969C938E93D6
:1015B00030E0C9010895DC0191968C9191978823C0
:1015C00039F05496ED91FC915597808186FFF9CFC3
:1015D00091961C920895CF93DF93EC01EE85FF85E1
:1015E000E05CFF4F20813181E054F0402F5F3F4F9E
:1015F0002F733070DF01AE5BBF4F8D919C911197BF
:1016000028173907D1F3E05CFF4F80819181E054C6
:10161000F040E80FF91F6083EE85FF85E05CFF4F27
:1016200031832083EE89FF89208181E090E00F8C57
:1016300002C0880F991F0A94E2F7282B208381E0CB
:1016400089A3EC89FD8980818064808381E090E0BA
:10165000DF91CF91089510923C0210923B0288EEE8
:1016600093E0A0E0B0E080933D0290933E02A0930F
:101670003F02B093400289E791E090933A02809351
:10168000390281EB91E0909346028093450285EF09
:1016900091E0909348028093470220E430E0309339
:1016A0004A022093490289E290E090934C02809391
:1016B0004B028BE290E090934E0280934D028AE2BF
:1016C00090E09093500280934F0230935202209307
:1016D00051028CE290E0909354028093530284E094
:1016E0008093550283E08093560287E080935702EF
:1016F00085E08093580281E0809359020895CF924B
:10170000DF92EF92FF920F931F93CF93DF937C01B1
:101710006B018A01C0E0D0E00FC0D6016D916D0170
:10172000D701ED91FC910190F081E02DC701099561
:10173000C80FD91F015010400115110571F7CE01D6
:10174000DF91CF911F910F91FF90EF90DF90CF909D
:101750000895EF92FF920F931F938C01DC01ED919E
:10176000FC910190F081E02D6DE009957C01D8019C
:10177000ED91FC910190F081E02DC8016AE009959E
:101780009C012E0D3F1DC9011F910F91FF90EF90FD
:101790000895CF93DF93EC016115710519F420E0F2
:1017A00030E00FC0DB010D900020E9F71197A61B78
:1017B000B70BE881F9810280F381E02DAD01099535
:1017C0009C01C901DF91CF910895EF92FF920F9391
:1017D0001F937C01DEDF8C01C701BBDF080F191FDF
:1017E000C8011F910F91FF90EF9008951F920F92E3
:1017F0000FB60F9211242F933F934F935F936F93E4
:101800007F938F939F93AF93BF9320915F0230910B
:101810006002409161025091620270916302DA01AC
:10182000C9010296A11DB11D672F6A5F6D3730F0A7
:101830006D57DA01C9010396A11DB11D60936302C2
:1018400080935F0290936002A0936102B093620262
:1018500080915B0290915C02A0915D02B0915E026A
:101860000196A11DB11D80935B0290935C02A09331
:101870005D02B0935E02BF91AF919F918F917F9176
:101880006F915F914F913F912F910F900FBE0F90ED
:101890001F901895789483B7826083BF83B7816067
:1018A00083BF89B7816089BF1EBC8EB582608EBD43
:1018B0008EB581608EBD8FB581608FBD85B584602A
:1018C00085BD85B5806485BD329A319A309A379A44
:1018D0001AB80895A1E21A2EAA1BBB1BFD010DC068
:1018E000AA1FBB1FEE1FFF1FA217B307E407F507D0
:1018F00020F0A21BB30BE40BF50B661F771F881FAC
:10190000991F1A9469F760957095809590959B0141
:10191000AC01BD01CF0108952F923F924F925F928B
:101920006F927F928F929F92AF92BF92CF92DF92EF
:10193000EF92FF920F931F93CF93DF93CDB7DEB754
:10194000CA1BDB0B0FB6F894DEBF0FBECDBF0994E8
:101950002A88398848885F846E847D848C849B843F
:10196000AA84B984C884DF80EE80FD800C811B814D
:10197000AA81B981CE0FD11D0FB6F894DEBF0FBE7C
:10198000CDBFED010895EE0FFF1F0590F491E02DFE
:10199000099411F40EF44DC03EC05DD0D0F39923EC
:1019A000D9F3CEF39F57550B87FF46D00024A0E60E
:1019B00040EA900180585695979528F4805C660F10
:1019C000771F881F20F026173707480730F4621B5F
:1019D000730B840B202931294A2BA6951794079461
:1019E000202531254A2758F7660F771F881F20F0DA
:1019F00026173707480730F4620B730B840B200D52
:101A0000311D411DA09581F7B901842F9158880F90
:101A10009695879508959F3F31F0915020F48795D2
:101A200077956795B795880F911D9695879597F946
:101A300008959FEF80EC089591505040660F771FF6
:101A4000881FD2F7089557FD9058440F551F59F03D
:101A50005F3F71F04795880F97FB991F61F09F3F9B
:101A600079F087950895121613061406551FF2CFC4
:101A70004695F1DF08C0161617061806991FF1CF14
:101A800086957105610508940895FC0188279927BA
:101A9000E89421912032E9F3293010F02E30C8F378
:101AA0002B3239F02D3231F4689403C016D0820FF6
:101AB000911D219120532A30C8F31EF490958195F1
:101AC0009F4F0895FC018191861721F08823D9F753
:101AD000992708953197CF0108957AE0979F902D27
:0E1AE000879F802D910D11240895F894FFCF5B
:101AEE002430323B00000000000000000000010224
:101AFE00020303030304040404040404040505059B
:101B0E000505050505050505050505050506060674
:101B1E000606060606060606060606060606060657
:101B2E000606060606060606060606060607070744
:101B3E000707070707070707070707070707070727
:101B4E000707070707070707070707070707070717
:101B5E000707070707070707070707070707070707
:101B6E0007070707070707070707070707080808F4
:101B7E0008080808080808080808080808080808D7
:101B8E0008080808080808080808080808080808C7
:101B9E0008080808080808080808080808080808B7
:101BAE0008080808080808080808080808080808A7
:101BBE000808080808080808080808080808080897
:101BCE000808080808080808080808080808080887
:101BDE000808080808080808080808080808080877
:101BEE0008080808080808080808080808010380FB
:101BFE00006802000000000000EB0A7F0B810AB2B1
:061C0E000A920ADB0A0045
:00000001FF
