:1000000012C02CC02BC02AC029C028C027C026C0BF
:1000100084C021C123C022C021C020C01FC01EC077
:100020001DC01CC01BC011241FBECFE5D4E0DEBF25
:10003000CDBF10E0A0E6B0E0E2E4F3E002C005903E
:100040000D92A636B107D9F710E0A6E6B0E001C0E0
:100050001D92A937B107E1F797D071C1D1CF829B2B
:1000600003C020E030E00FC080E49CE90197F1F785
:1000700080B3282F30E03695279536952795209523
:10008000309521703070C9010895C19AC29881E0FD
:1000900080936F00939A949A88E893E128EC30E07B
:1000A000F9013197F1F70197D9F7949880E395E733
:1000B00028EC30E0F9013197F1F70197D9F708956D
:1000C000C198C29A10926F009398949880E395E734
:1000D00028EC30E0F9013197F1F70197D9F708954D
:1000E00087B3866087BB81B3886181BB8A98929A07
:1000F000809160009091610090936A008093690004
:1001000010926D00809162009091630090936C005A
:1001100080936B0010926E0008951F920F920FB69D
:100120000F9211242F933F938F939F93809166009A
:10013000882309F180916D00882359F4809169002A
:1001400090916A00019790936A00809369008BE315
:1001500003C080916D00815080936D0080916D008F
:100160002091690030916A00882329F4232B19F427
:1001700081E0809367009F918F913F912F910F9025
:100180000FBE0F901F901895CF92DF92EF92FF92C3
:100190000F931F93CF93DF93B2D0A2DF91DFCC24D4
:1001A000C39433E0F32E02E024E1D22E94E0E92E52
:1001B000C9E0DDE354DF892B69F08091640082306F
:1001C00039F41092660010926700F092640002C049
:1001D000C092640010916400113051F0113028F089
:1001E000123039F1133031F730C080916800E2CF1E
:1001F0000FBDDEBCE9BED7BDC6BDDBBDCABD45DF98
:10020000809160009091610090936A0080936900F2
:10021000809162009091630090936C0080936B00DA
:1002200010926D0010926E001093660000936400AF
:10023000C1CF80916700882309F4BCCF109266007B
:1002400010926700F0926400B5CF1EBC19BE1092E8
:10025000640036DFAFCF1F920F920FB60F921124BA
:100260002F933F934F935F936F937F938F939F93BE
:10027000AF93BF9320917400309175004091760048
:100280005091770070917800DA01C9010296A11DA2
:10029000B11D672F6A5F6D3730F06D57DA01C90104
:1002A0000396A11DB11D6093780080937400909314
:1002B0007500A0937600B0937700809170009091C4
:1002C0007100A0917200B09173000196A11DB11D43
:1002D0008093700090937100A0937200B0937300AC
:1002E000BF91AF919F918F917F916F915F914F914E
:1002F0003F912F910F900FBE0F901F9018957894FB
:1003000083B7826083BF83B7816083BF89B7816011
:1003100089BF1EBC8EB582608EBD8EB581608EBDDC
:100320008FB581608FBD85B5846085BD85B58064DE
:1003300085BD329A319A309A379A1AB80895F8944E
:02034000FFCFED
:0603420050005B05030002
:00000001FF
